{
  "_format": "hh-sol-artifact-1",
  "contractName": "AST",
  "sourceName": "contracts/astFactory.sol",
  "abi": [
    {
      "inputs": [
        {
          "internalType": "string",
          "name": "_name",
          "type": "string"
        },
        {
          "internalType": "string",
          "name": "_symbol",
          "type": "string"
        },
        {
          "internalType": "uint256",
          "name": "_totalSupply",
          "type": "uint256"
        },
        {
          "internalType": "address",
          "name": "_assetLockedwallet",
          "type": "address"
        },
        {
          "internalType": "address",
          "name": "_factory",
          "type": "address"
        },
        {
          "internalType": "address",
          "name": "_AATToken",
          "type": "address"
        },
        {
          "internalType": "uint8",
          "name": "lockedPercentage",
          "type": "uint8"
        },
        {
          "internalType": "uint8",
          "name": "aatPercentage",
          "type": "uint8"
        }
      ],
      "stateMutability": "nonpayable",
      "type": "constructor"
    },
    {
      "anonymous": false,
      "inputs": [
        {
          "indexed": true,
          "internalType": "address",
          "name": "owner",
          "type": "address"
        },
        {
          "indexed": true,
          "internalType": "address",
          "name": "spender",
          "type": "address"
        },
        {
          "indexed": false,
          "internalType": "uint256",
          "name": "value",
          "type": "uint256"
        }
      ],
      "name": "Approval",
      "type": "event"
    },
    {
      "anonymous": false,
      "inputs": [
        {
          "indexed": true,
          "internalType": "address",
          "name": "from",
          "type": "address"
        },
        {
          "indexed": true,
          "internalType": "address",
          "name": "to",
          "type": "address"
        },
        {
          "indexed": false,
          "internalType": "uint256",
          "name": "value",
          "type": "uint256"
        }
      ],
      "name": "Transfer",
      "type": "event"
    },
    {
      "inputs": [
        {
          "internalType": "address",
          "name": "owner",
          "type": "address"
        },
        {
          "internalType": "address",
          "name": "spender",
          "type": "address"
        }
      ],
      "name": "allowance",
      "outputs": [
        {
          "internalType": "uint256",
          "name": "",
          "type": "uint256"
        }
      ],
      "stateMutability": "view",
      "type": "function"
    },
    {
      "inputs": [
        {
          "internalType": "address",
          "name": "spender",
          "type": "address"
        },
        {
          "internalType": "uint256",
          "name": "amount",
          "type": "uint256"
        }
      ],
      "name": "approve",
      "outputs": [
        {
          "internalType": "bool",
          "name": "",
          "type": "bool"
        }
      ],
      "stateMutability": "nonpayable",
      "type": "function"
    },
    {
      "inputs": [],
      "name": "assetWallet",
      "outputs": [
        {
          "internalType": "address",
          "name": "",
          "type": "address"
        }
      ],
      "stateMutability": "view",
      "type": "function"
    },
    {
      "inputs": [
        {
          "internalType": "address",
          "name": "account",
          "type": "address"
        }
      ],
      "name": "balanceOf",
      "outputs": [
        {
          "internalType": "uint256",
          "name": "",
          "type": "uint256"
        }
      ],
      "stateMutability": "view",
      "type": "function"
    },
    {
      "inputs": [
        {
          "internalType": "address",
          "name": "account",
          "type": "address"
        },
        {
          "internalType": "uint256",
          "name": "amount",
          "type": "uint256"
        }
      ],
      "name": "burn",
      "outputs": [
        {
          "internalType": "bool",
          "name": "",
          "type": "bool"
        }
      ],
      "stateMutability": "nonpayable",
      "type": "function"
    },
    {
      "inputs": [],
      "name": "decimals",
      "outputs": [
        {
          "internalType": "uint8",
          "name": "",
          "type": "uint8"
        }
      ],
      "stateMutability": "view",
      "type": "function"
    },
    {
      "inputs": [
        {
          "internalType": "address",
          "name": "spender",
          "type": "address"
        },
        {
          "internalType": "uint256",
          "name": "subtractedValue",
          "type": "uint256"
        }
      ],
      "name": "decreaseAllowance",
      "outputs": [
        {
          "internalType": "bool",
          "name": "",
          "type": "bool"
        }
      ],
      "stateMutability": "nonpayable",
      "type": "function"
    },
    {
      "inputs": [],
      "name": "factory",
      "outputs": [
        {
          "internalType": "address",
          "name": "",
          "type": "address"
        }
      ],
      "stateMutability": "view",
      "type": "function"
    },
    {
      "inputs": [
        {
          "internalType": "address",
          "name": "spender",
          "type": "address"
        },
        {
          "internalType": "uint256",
          "name": "addedValue",
          "type": "uint256"
        }
      ],
      "name": "increaseAllowance",
      "outputs": [
        {
          "internalType": "bool",
          "name": "",
          "type": "bool"
        }
      ],
      "stateMutability": "nonpayable",
      "type": "function"
    },
    {
      "inputs": [],
      "name": "name",
      "outputs": [
        {
          "internalType": "string",
          "name": "",
          "type": "string"
        }
      ],
      "stateMutability": "view",
      "type": "function"
    },
    {
      "inputs": [],
      "name": "symbol",
      "outputs": [
        {
          "internalType": "string",
          "name": "",
          "type": "string"
        }
      ],
      "stateMutability": "view",
      "type": "function"
    },
    {
      "inputs": [],
      "name": "totalSupply",
      "outputs": [
        {
          "internalType": "uint256",
          "name": "",
          "type": "uint256"
        }
      ],
      "stateMutability": "view",
      "type": "function"
    },
    {
      "inputs": [
        {
          "internalType": "address",
          "name": "to",
          "type": "address"
        },
        {
          "internalType": "uint256",
          "name": "amount",
          "type": "uint256"
        }
      ],
      "name": "transfer",
      "outputs": [
        {
          "internalType": "bool",
          "name": "",
          "type": "bool"
        }
      ],
      "stateMutability": "nonpayable",
      "type": "function"
    },
    {
      "inputs": [
        {
          "internalType": "address",
          "name": "from",
          "type": "address"
        },
        {
          "internalType": "address",
          "name": "to",
          "type": "address"
        },
        {
          "internalType": "uint256",
          "name": "amount",
          "type": "uint256"
        }
      ],
      "name": "transferFrom",
      "outputs": [
        {
          "internalType": "bool",
          "name": "",
          "type": "bool"
        }
      ],
      "stateMutability": "nonpayable",
      "type": "function"
    }
  ],
  "bytecode": "0x60806040523480156200001157600080fd5b506040516200248738038062002487833981810160405281019062000037919062000581565b878781600390816200004a9190620008c9565b5080600490816200005c9190620008c9565b5050506200006f6200019060201b60201c565b600a6200007d919062000b33565b866200008a919062000b84565b600681905550600060648360ff16600654620000a7919062000b84565b620000b3919062000bfe565b9050600060648360ff16600654620000cc919062000b84565b620000d8919062000bfe565b9050620000ec87836200019960201b60201c565b620000fe85826200019960201b60201c565b86600560006101000a81548173ffffffffffffffffffffffffffffffffffffffff021916908373ffffffffffffffffffffffffffffffffffffffff16021790555085600760006101000a81548173ffffffffffffffffffffffffffffffffffffffff021916908373ffffffffffffffffffffffffffffffffffffffff1602179055505050505050505050505062000d22565b60006012905090565b600073ffffffffffffffffffffffffffffffffffffffff168273ffffffffffffffffffffffffffffffffffffffff16036200020b576040517f08c379a0000000000000000000000000000000000000000000000000000000008152600401620002029062000c97565b60405180910390fd5b6200021f600083836200030660201b60201c565b806002600082825462000233919062000cb9565b92505081905550806000808473ffffffffffffffffffffffffffffffffffffffff1673ffffffffffffffffffffffffffffffffffffffff168152602001908152602001600020600082825401925050819055508173ffffffffffffffffffffffffffffffffffffffff16600073ffffffffffffffffffffffffffffffffffffffff167fddf252ad1be2c89b69c2b068fc378daa952ba7f163c4a11628f55a4df523b3ef83604051620002e6919062000d05565b60405180910390a362000302600083836200030b60201b60201c565b5050565b505050565b505050565b6000604051905090565b600080fd5b600080fd5b600080fd5b600080fd5b6000601f19601f8301169050919050565b7f4e487b7100000000000000000000000000000000000000000000000000000000600052604160045260246000fd5b62000379826200032e565b810181811067ffffffffffffffff821117156200039b576200039a6200033f565b5b80604052505050565b6000620003b062000310565b9050620003be82826200036e565b919050565b600067ffffffffffffffff821115620003e157620003e06200033f565b5b620003ec826200032e565b9050602081019050919050565b60005b8381101562000419578082015181840152602081019050620003fc565b60008484015250505050565b60006200043c6200043684620003c3565b620003a4565b9050828152602081018484840111156200045b576200045a62000329565b5b62000468848285620003f9565b509392505050565b600082601f83011262000488576200048762000324565b5b81516200049a84826020860162000425565b91505092915050565b6000819050919050565b620004b881620004a3565b8114620004c457600080fd5b50565b600081519050620004d881620004ad565b92915050565b600073ffffffffffffffffffffffffffffffffffffffff82169050919050565b60006200050b82620004de565b9050919050565b6200051d81620004fe565b81146200052957600080fd5b50565b6000815190506200053d8162000512565b92915050565b600060ff82169050919050565b6200055b8162000543565b81146200056757600080fd5b50565b6000815190506200057b8162000550565b92915050565b600080600080600080600080610100898b031215620005a557620005a46200031a565b5b600089015167ffffffffffffffff811115620005c657620005c56200031f565b5b620005d48b828c0162000470565b985050602089015167ffffffffffffffff811115620005f857620005f76200031f565b5b620006068b828c0162000470565b9750506040620006198b828c01620004c7565b96505060606200062c8b828c016200052c565b95505060806200063f8b828c016200052c565b94505060a0620006528b828c016200052c565b93505060c0620006658b828c016200056a565b92505060e0620006788b828c016200056a565b9150509295985092959890939650565b600081519050919050565b7f4e487b7100000000000000000000000000000000000000000000000000000000600052602260045260246000fd5b60006002820490506001821680620006db57607f821691505b602082108103620006f157620006f062000693565b5b50919050565b60008190508160005260206000209050919050565b60006020601f8301049050919050565b600082821b905092915050565b6000600883026200075b7fffffffffffffffffffffffffffffffffffffffffffffffffffffffffffffffff826200071c565b6200076786836200071c565b95508019841693508086168417925050509392505050565b6000819050919050565b6000620007aa620007a46200079e84620004a3565b6200077f565b620004a3565b9050919050565b6000819050919050565b620007c68362000789565b620007de620007d582620007b1565b84845462000729565b825550505050565b600090565b620007f5620007e6565b62000802818484620007bb565b505050565b5b818110156200082a576200081e600082620007eb565b60018101905062000808565b5050565b601f82111562000879576200084381620006f7565b6200084e846200070c565b810160208510156200085e578190505b620008766200086d856200070c565b83018262000807565b50505b505050565b600082821c905092915050565b60006200089e600019846008026200087e565b1980831691505092915050565b6000620008b983836200088b565b9150826002028217905092915050565b620008d48262000688565b67ffffffffffffffff811115620008f057620008ef6200033f565b5b620008fc8254620006c2565b620009098282856200082e565b600060209050601f8311600181146200094157600084156200092c578287015190505b620009388582620008ab565b865550620009a8565b601f1984166200095186620006f7565b60005b828110156200097b5784890151825560018201915060208501945060208101905062000954565b868310156200099b578489015162000997601f8916826200088b565b8355505b6001600288020188555050505b505050505050565b7f4e487b7100000000000000000000000000000000000000000000000000000000600052601160045260246000fd5b60008160011c9050919050565b6000808291508390505b600185111562000a3e5780860481111562000a165762000a15620009b0565b5b600185161562000a265780820291505b808102905062000a3685620009df565b9450620009f6565b94509492505050565b60008262000a59576001905062000b2c565b8162000a69576000905062000b2c565b816001811462000a82576002811462000a8d5762000ac3565b600191505062000b2c565b60ff84111562000aa25762000aa1620009b0565b5b8360020a91508482111562000abc5762000abb620009b0565b5b5062000b2c565b5060208310610133831016604e8410600b841016171562000afd5782820a90508381111562000af75762000af6620009b0565b5b62000b2c565b62000b0c8484846001620009ec565b9250905081840481111562000b265762000b25620009b0565b5b81810290505b9392505050565b600062000b4082620004a3565b915062000b4d8362000543565b925062000b7c7fffffffffffffffffffffffffffffffffffffffffffffffffffffffffffffffff848462000a47565b905092915050565b600062000b9182620004a3565b915062000b9e83620004a3565b925082820262000bae81620004a3565b9150828204841483151762000bc85762000bc7620009b0565b5b5092915050565b7f4e487b7100000000000000000000000000000000000000000000000000000000600052601260045260246000fd5b600062000c0b82620004a3565b915062000c1883620004a3565b92508262000c2b5762000c2a62000bcf565b5b828204905092915050565b600082825260208201905092915050565b7f45524332303a206d696e7420746f20746865207a65726f206164647265737300600082015250565b600062000c7f601f8362000c36565b915062000c8c8262000c47565b602082019050919050565b6000602082019050818103600083015262000cb28162000c70565b9050919050565b600062000cc682620004a3565b915062000cd383620004a3565b925082820190508082111562000cee5762000ced620009b0565b5b92915050565b62000cff81620004a3565b82525050565b600060208201905062000d1c600083018462000cf4565b92915050565b6117558062000d326000396000f3fe608060405234801561001057600080fd5b50600436106100ea5760003560e01c806370a082311161008c578063a457c2d711610066578063a457c2d714610275578063a9059cbb146102a5578063c45a0155146102d5578063dd62ed3e146102f3576100ea565b806370a08231146101f757806395d89b41146102275780639dc29fac14610245576100ea565b806323b872dd116100c857806323b872dd1461015b578063313ce5671461018b57806339509351146101a95780636b881724146101d9576100ea565b806306fdde03146100ef578063095ea7b31461010d57806318160ddd1461013d575b600080fd5b6100f7610323565b6040516101049190610e78565b60405180910390f35b61012760048036038101906101229190610f33565b6103b5565b6040516101349190610f8e565b60405180910390f35b6101456103d8565b6040516101529190610fb8565b60405180910390f35b61017560048036038101906101709190610fd3565b6103e2565b6040516101829190610f8e565b60405180910390f35b610193610411565b6040516101a09190611042565b60405180910390f35b6101c360048036038101906101be9190610f33565b61041a565b6040516101d09190610f8e565b60405180910390f35b6101e1610451565b6040516101ee919061106c565b60405180910390f35b610211600480360381019061020c9190611087565b610477565b60405161021e9190610fb8565b60405180910390f35b61022f6104bf565b60405161023c9190610e78565b60405180910390f35b61025f600480360381019061025a9190610f33565b610551565b60405161026c9190610f8e565b60405180910390f35b61028f600480360381019061028a9190610f33565b6105f7565b60405161029c9190610f8e565b60405180910390f35b6102bf60048036038101906102ba9190610f33565b61066e565b6040516102cc9190610f8e565b60405180910390f35b6102dd610691565b6040516102ea919061106c565b60405180910390f35b61030d600480360381019061030891906110b4565b6106b7565b60405161031a9190610fb8565b60405180910390f35b60606003805461033290611123565b80601f016020809104026020016040519081016040528092919081815260200182805461035e90611123565b80156103ab5780601f10610380576101008083540402835291602001916103ab565b820191906000526020600020905b81548152906001019060200180831161038e57829003601f168201915b5050505050905090565b6000806103c061073e565b90506103cd818585610746565b600191505092915050565b6000600254905090565b6000806103ed61073e565b90506103fa85828561090f565b61040585858561099b565b60019150509392505050565b60006012905090565b60008061042561073e565b905061044681858561043785896106b7565b6104419190611183565b610746565b600191505092915050565b600560009054906101000a900473ffffffffffffffffffffffffffffffffffffffff1681565b60008060008373ffffffffffffffffffffffffffffffffffffffff1673ffffffffffffffffffffffffffffffffffffffff168152602001908152602001600020549050919050565b6060600480546104ce90611123565b80601f01602080910402602001604051908101604052809291908181526020018280546104fa90611123565b80156105475780601f1061051c57610100808354040283529160200191610547565b820191906000526020600020905b81548152906001019060200180831161052a57829003601f168201915b5050505050905090565b60003373ffffffffffffffffffffffffffffffffffffffff16600760009054906101000a900473ffffffffffffffffffffffffffffffffffffffff1673ffffffffffffffffffffffffffffffffffffffff16146105e3576040517f08c379a00000000000000000000000000000000000000000000000000000000081526004016105da90611203565b60405180910390fd5b6105ed8383610c11565b6001905092915050565b60008061060261073e565b9050600061061082866106b7565b905083811015610655576040517f08c379a000000000000000000000000000000000000000000000000000000000815260040161064c90611295565b60405180910390fd5b6106628286868403610746565b60019250505092915050565b60008061067961073e565b905061068681858561099b565b600191505092915050565b600760009054906101000a900473ffffffffffffffffffffffffffffffffffffffff1681565b6000600160008473ffffffffffffffffffffffffffffffffffffffff1673ffffffffffffffffffffffffffffffffffffffff16815260200190815260200160002060008373ffffffffffffffffffffffffffffffffffffffff1673ffffffffffffffffffffffffffffffffffffffff16815260200190815260200160002054905092915050565b600033905090565b600073ffffffffffffffffffffffffffffffffffffffff168373ffffffffffffffffffffffffffffffffffffffff16036107b5576040517f08c379a00000000000000000000000000000000000000000000000000000000081526004016107ac90611327565b60405180910390fd5b600073ffffffffffffffffffffffffffffffffffffffff168273ffffffffffffffffffffffffffffffffffffffff1603610824576040517f08c379a000000000000000000000000000000000000000000000000000000000815260040161081b906113b9565b60405180910390fd5b80600160008573ffffffffffffffffffffffffffffffffffffffff1673ffffffffffffffffffffffffffffffffffffffff16815260200190815260200160002060008473ffffffffffffffffffffffffffffffffffffffff1673ffffffffffffffffffffffffffffffffffffffff168152602001908152602001600020819055508173ffffffffffffffffffffffffffffffffffffffff168373ffffffffffffffffffffffffffffffffffffffff167f8c5be1e5ebec7d5bd14f71427d1e84f3dd0314c0f7b2291e5b200ac8c7c3b925836040516109029190610fb8565b60405180910390a3505050565b600061091b84846106b7565b90507fffffffffffffffffffffffffffffffffffffffffffffffffffffffffffffffff81146109955781811015610987576040517f08c379a000000000000000000000000000000000000000000000000000000000815260040161097e90611425565b60405180910390fd5b6109948484848403610746565b5b50505050565b600073ffffffffffffffffffffffffffffffffffffffff168373ffffffffffffffffffffffffffffffffffffffff1603610a0a576040517f08c379a0000000000000000000000000000000000000000000000000000000008152600401610a01906114b7565b60405180910390fd5b600073ffffffffffffffffffffffffffffffffffffffff168273ffffffffffffffffffffffffffffffffffffffff1603610a79576040517f08c379a0000000000000000000000000000000000000000000000000000000008152600401610a7090611549565b60405180910390fd5b610a84838383610dde565b60008060008573ffffffffffffffffffffffffffffffffffffffff1673ffffffffffffffffffffffffffffffffffffffff16815260200190815260200160002054905081811015610b0a576040517f08c379a0000000000000000000000000000000000000000000000000000000008152600401610b01906115db565b60405180910390fd5b8181036000808673ffffffffffffffffffffffffffffffffffffffff1673ffffffffffffffffffffffffffffffffffffffff16815260200190815260200160002081905550816000808573ffffffffffffffffffffffffffffffffffffffff1673ffffffffffffffffffffffffffffffffffffffff168152602001908152602001600020600082825401925050819055508273ffffffffffffffffffffffffffffffffffffffff168473ffffffffffffffffffffffffffffffffffffffff167fddf252ad1be2c89b69c2b068fc378daa952ba7f163c4a11628f55a4df523b3ef84604051610bf89190610fb8565b60405180910390a3610c0b848484610de3565b50505050565b600073ffffffffffffffffffffffffffffffffffffffff168273ffffffffffffffffffffffffffffffffffffffff1603610c80576040517f08c379a0000000000000000000000000000000000000000000000000000000008152600401610c779061166d565b60405180910390fd5b610c8c82600083610dde565b60008060008473ffffffffffffffffffffffffffffffffffffffff1673ffffffffffffffffffffffffffffffffffffffff16815260200190815260200160002054905081811015610d12576040517f08c379a0000000000000000000000000000000000000000000000000000000008152600401610d09906116ff565b60405180910390fd5b8181036000808573ffffffffffffffffffffffffffffffffffffffff1673ffffffffffffffffffffffffffffffffffffffff1681526020019081526020016000208190555081600260008282540392505081905550600073ffffffffffffffffffffffffffffffffffffffff168373ffffffffffffffffffffffffffffffffffffffff167fddf252ad1be2c89b69c2b068fc378daa952ba7f163c4a11628f55a4df523b3ef84604051610dc59190610fb8565b60405180910390a3610dd983600084610de3565b505050565b505050565b505050565b600081519050919050565b600082825260208201905092915050565b60005b83811015610e22578082015181840152602081019050610e07565b60008484015250505050565b6000601f19601f8301169050919050565b6000610e4a82610de8565b610e548185610df3565b9350610e64818560208601610e04565b610e6d81610e2e565b840191505092915050565b60006020820190508181036000830152610e928184610e3f565b905092915050565b600080fd5b600073ffffffffffffffffffffffffffffffffffffffff82169050919050565b6000610eca82610e9f565b9050919050565b610eda81610ebf565b8114610ee557600080fd5b50565b600081359050610ef781610ed1565b92915050565b6000819050919050565b610f1081610efd565b8114610f1b57600080fd5b50565b600081359050610f2d81610f07565b92915050565b60008060408385031215610f4a57610f49610e9a565b5b6000610f5885828601610ee8565b9250506020610f6985828601610f1e565b9150509250929050565b60008115159050919050565b610f8881610f73565b82525050565b6000602082019050610fa36000830184610f7f565b92915050565b610fb281610efd565b82525050565b6000602082019050610fcd6000830184610fa9565b92915050565b600080600060608486031215610fec57610feb610e9a565b5b6000610ffa86828701610ee8565b935050602061100b86828701610ee8565b925050604061101c86828701610f1e565b9150509250925092565b600060ff82169050919050565b61103c81611026565b82525050565b60006020820190506110576000830184611033565b92915050565b61106681610ebf565b82525050565b6000602082019050611081600083018461105d565b92915050565b60006020828403121561109d5761109c610e9a565b5b60006110ab84828501610ee8565b91505092915050565b600080604083850312156110cb576110ca610e9a565b5b60006110d985828601610ee8565b92505060206110ea85828601610ee8565b9150509250929050565b7f4e487b7100000000000000000000000000000000000000000000000000000000600052602260045260246000fd5b6000600282049050600182168061113b57607f821691505b60208210810361114e5761114d6110f4565b5b50919050565b7f4e487b7100000000000000000000000000000000000000000000000000000000600052601160045260246000fd5b600061118e82610efd565b915061119983610efd565b92508282019050808211156111b1576111b0611154565b5b92915050565b7f596f752043616e6e6f74204275726e0000000000000000000000000000000000600082015250565b60006111ed600f83610df3565b91506111f8826111b7565b602082019050919050565b6000602082019050818103600083015261121c816111e0565b9050919050565b7f45524332303a2064656372656173656420616c6c6f77616e63652062656c6f7760008201527f207a65726f000000000000000000000000000000000000000000000000000000602082015250565b600061127f602583610df3565b915061128a82611223565b604082019050919050565b600060208201905081810360008301526112ae81611272565b9050919050565b7f45524332303a20617070726f76652066726f6d20746865207a65726f2061646460008201527f7265737300000000000000000000000000000000000000000000000000000000602082015250565b6000611311602483610df3565b915061131c826112b5565b604082019050919050565b6000602082019050818103600083015261134081611304565b9050919050565b7f45524332303a20617070726f766520746f20746865207a65726f20616464726560008201527f7373000000000000000000000000000000000000000000000000000000000000602082015250565b60006113a3602283610df3565b91506113ae82611347565b604082019050919050565b600060208201905081810360008301526113d281611396565b9050919050565b7f45524332303a20696e73756666696369656e7420616c6c6f77616e6365000000600082015250565b600061140f601d83610df3565b915061141a826113d9565b602082019050919050565b6000602082019050818103600083015261143e81611402565b9050919050565b7f45524332303a207472616e736665722066726f6d20746865207a65726f20616460008201527f6472657373000000000000000000000000000000000000000000000000000000602082015250565b60006114a1602583610df3565b91506114ac82611445565b604082019050919050565b600060208201905081810360008301526114d081611494565b9050919050565b7f45524332303a207472616e7366657220746f20746865207a65726f206164647260008201527f6573730000000000000000000000000000000000000000000000000000000000602082015250565b6000611533602383610df3565b915061153e826114d7565b604082019050919050565b6000602082019050818103600083015261156281611526565b9050919050565b7f45524332303a207472616e7366657220616d6f756e742065786365656473206260008201527f616c616e63650000000000000000000000000000000000000000000000000000602082015250565b60006115c5602683610df3565b91506115d082611569565b604082019050919050565b600060208201905081810360008301526115f4816115b8565b9050919050565b7f45524332303a206275726e2066726f6d20746865207a65726f2061646472657360008201527f7300000000000000000000000000000000000000000000000000000000000000602082015250565b6000611657602183610df3565b9150611662826115fb565b604082019050919050565b600060208201905081810360008301526116868161164a565b9050919050565b7f45524332303a206275726e20616d6f756e7420657863656564732062616c616e60008201527f6365000000000000000000000000000000000000000000000000000000000000602082015250565b60006116e9602283610df3565b91506116f48261168d565b604082019050919050565b60006020820190508181036000830152611718816116dc565b905091905056fea26469706673582212204f2c0fa4342ecb667138b76fffb4819bd03cbce1147a791d275081fcd7ade41b64736f6c63430008130033",
  "linkReferences": {},
  "deployedLinkReferences": {}
}