{
  "_format": "hh-sol-artifact-1",
  "contractName": "ASTTokenFactory",
  "sourceName": "contracts/astFactory.sol",
  "abi": [
    {
      "inputs": [
        {
          "internalType": "address",
          "name": "_poolWallet",
          "type": "address"
        },
        {
          "internalType": "address",
          "name": "_assetLockedWallet",
          "type": "address"
        }
      ],
      "stateMutability": "nonpayable",
      "type": "constructor"
    },
    {
      "inputs": [
        {
          "internalType": "address",
          "name": "owner",
          "type": "address"
        }
      ],
      "name": "OwnableInvalidOwner",
      "type": "error"
    },
    {
      "inputs": [
        {
          "internalType": "address",
          "name": "account",
          "type": "address"
        }
      ],
      "name": "OwnableUnauthorizedAccount",
      "type": "error"
    },
    {
      "anonymous": false,
      "inputs": [
        {
          "indexed": true,
          "internalType": "address",
          "name": "previousOwner",
          "type": "address"
        },
        {
          "indexed": true,
          "internalType": "address",
          "name": "newOwner",
          "type": "address"
        }
      ],
      "name": "OwnershipTransferred",
      "type": "event"
    },
    {
      "inputs": [
        {
          "internalType": "address",
          "name": "_astToken",
          "type": "address"
        }
      ],
      "name": "aatBurnAmount",
      "outputs": [
        {
          "internalType": "uint256",
          "name": "aatAmount_",
          "type": "uint256"
        }
      ],
      "stateMutability": "view",
      "type": "function"
    },
    {
      "inputs": [
        {
          "internalType": "address",
          "name": "",
          "type": "address"
        }
      ],
      "name": "aatConversion",
      "outputs": [
        {
          "internalType": "uint256",
          "name": "",
          "type": "uint256"
        }
      ],
      "stateMutability": "view",
      "type": "function"
    },
    {
      "inputs": [],
      "name": "aatToken",
      "outputs": [
        {
          "internalType": "address",
          "name": "",
          "type": "address"
        }
      ],
      "stateMutability": "view",
      "type": "function"
    },
    {
      "inputs": [],
      "name": "assetLockedWallet",
      "outputs": [
        {
          "internalType": "address",
          "name": "",
          "type": "address"
        }
      ],
      "stateMutability": "view",
      "type": "function"
    },
    {
      "inputs": [
        {
          "internalType": "address",
          "name": "_astToken",
          "type": "address"
        },
        {
          "internalType": "uint256",
          "name": "_aatAmount",
          "type": "uint256"
        }
      ],
      "name": "astConversionAmount",
      "outputs": [
        {
          "internalType": "uint256",
          "name": "astAmount_",
          "type": "uint256"
        },
        {
          "internalType": "uint256",
          "name": "needToBurn",
          "type": "uint256"
        }
      ],
      "stateMutability": "view",
      "type": "function"
    },
    {
      "inputs": [
        {
          "internalType": "address",
          "name": "_astToken",
          "type": "address"
        },
        {
          "internalType": "address",
          "name": "_user",
          "type": "address"
        }
      ],
      "name": "astTokenBalance",
      "outputs": [
        {
          "internalType": "uint256",
          "name": "",
          "type": "uint256"
        },
        {
          "internalType": "uint256",
          "name": "",
          "type": "uint256"
        }
      ],
      "stateMutability": "view",
      "type": "function"
    },
    {
      "inputs": [
        {
          "internalType": "uint256",
          "name": "_amount",
          "type": "uint256"
        },
        {
          "internalType": "address",
          "name": "_astToken",
          "type": "address"
        }
      ],
      "name": "burnAAT",
      "outputs": [],
      "stateMutability": "nonpayable",
      "type": "function"
    },
    {
      "inputs": [
        {
          "internalType": "address",
          "name": "_astToken",
          "type": "address"
        }
      ],
      "name": "burnAstToken",
      "outputs": [],
      "stateMutability": "nonpayable",
      "type": "function"
    },
    {
      "inputs": [
        {
          "internalType": "string",
          "name": "name_",
          "type": "string"
        },
        {
          "internalType": "string",
          "name": "symbol_",
          "type": "string"
        },
        {
          "internalType": "uint256",
          "name": "totalSupply_",
          "type": "uint256"
        },
        {
          "internalType": "uint256",
          "name": "_ratio",
          "type": "uint256"
        },
        {
          "internalType": "uint8",
          "name": "lockedPercentage",
          "type": "uint8"
        },
        {
          "internalType": "uint8",
          "name": "aatPercentage",
          "type": "uint8"
        }
      ],
      "name": "createASTToken",
      "outputs": [
        {
          "internalType": "contract AST",
          "name": "",
          "type": "address"
        }
      ],
      "stateMutability": "nonpayable",
      "type": "function"
    },
    {
      "inputs": [],
      "name": "getASTs",
      "outputs": [
        {
          "internalType": "address[]",
          "name": "",
          "type": "address[]"
        }
      ],
      "stateMutability": "view",
      "type": "function"
    },
    {
      "inputs": [],
      "name": "owner",
      "outputs": [
        {
          "internalType": "address",
          "name": "",
          "type": "address"
        }
      ],
      "stateMutability": "view",
      "type": "function"
    },
    {
      "inputs": [],
      "name": "poolWallet",
      "outputs": [
        {
          "internalType": "address",
          "name": "",
          "type": "address"
        }
      ],
      "stateMutability": "view",
      "type": "function"
    },
    {
      "inputs": [],
      "name": "renounceOwnership",
      "outputs": [],
      "stateMutability": "nonpayable",
      "type": "function"
    },
    {
      "inputs": [
        {
          "internalType": "address",
          "name": "_token",
          "type": "address"
        }
      ],
      "name": "setAATToken",
      "outputs": [],
      "stateMutability": "nonpayable",
      "type": "function"
    },
    {
      "inputs": [
        {
          "internalType": "address",
          "name": "_wallet",
          "type": "address"
        }
      ],
      "name": "setAssetLockedWallet",
      "outputs": [],
      "stateMutability": "nonpayable",
      "type": "function"
    },
    {
      "inputs": [
        {
          "internalType": "address",
          "name": "_wallet",
          "type": "address"
        }
      ],
      "name": "setPoolWallet",
      "outputs": [],
      "stateMutability": "nonpayable",
      "type": "function"
    },
    {
      "inputs": [],
      "name": "tokenCount",
      "outputs": [
        {
          "internalType": "uint256",
          "name": "",
          "type": "uint256"
        }
      ],
      "stateMutability": "view",
      "type": "function"
    },
    {
      "inputs": [
        {
          "internalType": "address",
          "name": "newOwner",
          "type": "address"
        }
      ],
      "name": "transferOwnership",
      "outputs": [],
      "stateMutability": "nonpayable",
      "type": "function"
    }
  ],
  "bytecode": "0x60806040523480156200001157600080fd5b506040516200535a3803806200535a833981810160405281019062000037919062000324565b33600073ffffffffffffffffffffffffffffffffffffffff168173ffffffffffffffffffffffffffffffffffffffff1603620000ad5760006040517f1e4fbdf7000000000000000000000000000000000000000000000000000000008152600401620000a491906200037c565b60405180910390fd5b620000be81620001f660201b60201c565b50600073ffffffffffffffffffffffffffffffffffffffff168273ffffffffffffffffffffffffffffffffffffffff16141580156200012a5750600073ffffffffffffffffffffffffffffffffffffffff168173ffffffffffffffffffffffffffffffffffffffff1614155b6200016c576040517f08c379a00000000000000000000000000000000000000000000000000000000081526004016200016390620003fa565b60405180910390fd5b81600360006101000a81548173ffffffffffffffffffffffffffffffffffffffff021916908373ffffffffffffffffffffffffffffffffffffffff16021790555080600460006101000a81548173ffffffffffffffffffffffffffffffffffffffff021916908373ffffffffffffffffffffffffffffffffffffffff16021790555050506200041c565b60008060009054906101000a900473ffffffffffffffffffffffffffffffffffffffff169050816000806101000a81548173ffffffffffffffffffffffffffffffffffffffff021916908373ffffffffffffffffffffffffffffffffffffffff1602179055508173ffffffffffffffffffffffffffffffffffffffff168173ffffffffffffffffffffffffffffffffffffffff167f8be0079c531659141344cd1fd0a4f28419497f9722a3daafe3b4186f6b6457e060405160405180910390a35050565b600080fd5b600073ffffffffffffffffffffffffffffffffffffffff82169050919050565b6000620002ec82620002bf565b9050919050565b620002fe81620002df565b81146200030a57600080fd5b50565b6000815190506200031e81620002f3565b92915050565b600080604083850312156200033e576200033d620002ba565b5b60006200034e858286016200030d565b925050602062000361858286016200030d565b9150509250929050565b6200037681620002df565b82525050565b60006020820190506200039360008301846200036b565b92915050565b600082825260208201905092915050565b7f496e76616c696420616464726573730000000000000000000000000000000000600082015250565b6000620003e2600f8362000399565b9150620003ef82620003aa565b602082019050919050565b600060208201905081810360008301526200041581620003d3565b9050919050565b614f2e806200042c6000396000f3fe60806040523480156200001157600080fd5b5060043610620001305760003560e01c8063bbe5807d11620000b1578063f12343ee116200007b578063f12343ee1462000324578063f2fde38b146200035b578063f3f21265146200037b578063fab14713146200039b578063fc8346bf14620003bd5762000130565b8063bbe5807d1462000273578063e8fd7b211462000295578063ec49090614620002b7578063f110c3b214620002ee5762000130565b8063826b399311620000ff578063826b399314620001cd5780638d93ec8814620001ed5780638da5cb5b146200020f5780639f181b5e1462000231578063a978086514620002535762000130565b80630d3e58a914620001355780630f9d7159146200016b5780633e3806ba146200018b578063715018a614620001c1575b600080fd5b6200015360048036038101906200014d919062001d35565b620003dd565b60405162000162919062001e9a565b60405180910390f35b62000189600480360381019062000183919062001efc565b62000a24565b005b620001a96004803603810190620001a3919062001efc565b62000ae4565b604051620001b8919062001f3f565b60405180910390f35b620001cb62000afc565b005b620001eb6004803603810190620001e5919062001efc565b62000b14565b005b620001f762000bd4565b60405162000206919062001f6d565b60405180910390f35b6200021962000bfa565b60405162000228919062001f6d565b60405180910390f35b6200023b62000c23565b6040516200024a919062001f3f565b60405180910390f35b6200027160048036038101906200026b919062001efc565b62000c29565b005b6200027d62000f61565b6040516200028c919062002058565b60405180910390f35b6200029f62000ff1565b604051620002ae919062001f6d565b60405180910390f35b620002d56004803603810190620002cf91906200207c565b62001017565b604051620002e5929190620020c3565b60405180910390f35b6200030c600480360381019062000306919062001efc565b62001116565b6040516200031b919062001f3f565b60405180910390f35b6200034260048036038101906200033c9190620020f0565b6200130a565b60405162000352929190620020c3565b60405180910390f35b62000379600480360381019062000373919062001efc565b62001551565b005b62000399600480360381019062000393919062002137565b620015de565b005b620003a562001783565b604051620003b4919062001f6d565b60405180910390f35b620003db6004803603810190620003d5919062001efc565b620017a9565b005b6000620003e962001869565b600084116200042f576040517f08c379a00000000000000000000000000000000000000000000000000000000081526004016200042690620021df565b60405180910390fd5b600073ffffffffffffffffffffffffffffffffffffffff16600660009054906101000a900473ffffffffffffffffffffffffffffffffffffffff1673ffffffffffffffffffffffffffffffffffffffff1603620004c3576040517f08c379a0000000000000000000000000000000000000000000000000000000008152600401620004ba9062002251565b60405180910390fd5b600073ffffffffffffffffffffffffffffffffffffffff16600360009054906101000a900473ffffffffffffffffffffffffffffffffffffffff1673ffffffffffffffffffffffffffffffffffffffff160362000557576040517f08c379a00000000000000000000000000000000000000000000000000000000081526004016200054e90620022c3565b60405180910390fd5b600073ffffffffffffffffffffffffffffffffffffffff16600460009054906101000a900473ffffffffffffffffffffffffffffffffffffffff1673ffffffffffffffffffffffffffffffffffffffff1603620005eb576040517f08c379a0000000000000000000000000000000000000000000000000000000008152600401620005e29062002335565b60405180910390fd5b6000878787600460009054906101000a900473ffffffffffffffffffffffffffffffffffffffff1630600660009054906101000a900473ffffffffffffffffffffffffffffffffffffffff168989604051620006479062001b38565b6200065a989796959493929190620023e0565b604051809103906000f08015801562000677573d6000803e3d6000fd5b5090506001819080600181540180825580915050600190039060005260206000200160009091909190916101000a81548173ffffffffffffffffffffffffffffffffffffffff021916908373ffffffffffffffffffffffffffffffffffffffff16021790555060056000815480929190620006f290620024ab565b919050555084600260008373ffffffffffffffffffffffffffffffffffffffff1673ffffffffffffffffffffffffffffffffffffffff168152602001908152602001600020819055506000856103e8886200074e9190620024f8565b6200075a919062002572565b9050600660009054906101000a900473ffffffffffffffffffffffffffffffffffffffff1673ffffffffffffffffffffffffffffffffffffffff166340c10f19600360009054906101000a900473ffffffffffffffffffffffffffffffffffffffff16600660009054906101000a900473ffffffffffffffffffffffffffffffffffffffff1673ffffffffffffffffffffffffffffffffffffffff1663313ce5676040518163ffffffff1660e01b8152600401602060405180830381865afa1580156200082b573d6000803e3d6000fd5b505050506040513d601f19601f82011682018060405250810190620008519190620025c1565b600a6200085f919062002747565b846200086c9190620024f8565b6040518363ffffffff1660e01b81526004016200088b92919062002798565b6020604051808303816000875af1158015620008ab573d6000803e3d6000fd5b505050506040513d601f19601f82011682018060405250810190620008d1919062002802565b5060008273ffffffffffffffffffffffffffffffffffffffff1663313ce5676040518163ffffffff1660e01b8152600401602060405180830381865afa15801562000920573d6000803e3d6000fd5b505050506040513d601f19601f82011682018060405250810190620009469190620025c1565b600a62000954919062002747565b60648660ff168a620009679190620024f8565b62000973919062002572565b6200097f9190620024f8565b9050600660009054906101000a900473ffffffffffffffffffffffffffffffffffffffff1673ffffffffffffffffffffffffffffffffffffffff1663f1fc699784836040518363ffffffff1660e01b8152600401620009e092919062002798565b600060405180830381600087803b158015620009fb57600080fd5b505af115801562000a10573d6000803e3d6000fd5b505050508293505050509695505050505050565b62000a2e62001869565b600073ffffffffffffffffffffffffffffffffffffffff168173ffffffffffffffffffffffffffffffffffffffff160362000aa0576040517f08c379a000000000000000000000000000000000000000000000000000000000815260040162000a979062002884565b60405180910390fd5b80600660006101000a81548173ffffffffffffffffffffffffffffffffffffffff021916908373ffffffffffffffffffffffffffffffffffffffff16021790555050565b60026020528060005260406000206000915090505481565b62000b0662001869565b62000b126000620018f9565b565b62000b1e62001869565b600073ffffffffffffffffffffffffffffffffffffffff168173ffffffffffffffffffffffffffffffffffffffff160362000b90576040517f08c379a000000000000000000000000000000000000000000000000000000000815260040162000b879062002884565b60405180910390fd5b80600460006101000a81548173ffffffffffffffffffffffffffffffffffffffff021916908373ffffffffffffffffffffffffffffffffffffffff16021790555050565b600360009054906101000a900473ffffffffffffffffffffffffffffffffffffffff1681565b60008060009054906101000a900473ffffffffffffffffffffffffffffffffffffffff16905090565b60055481565b62000c3362001869565b600073ffffffffffffffffffffffffffffffffffffffff168173ffffffffffffffffffffffffffffffffffffffff160362000ca5576040517f08c379a000000000000000000000000000000000000000000000000000000000815260040162000c9c9062002884565b60405180910390fd5b60638173ffffffffffffffffffffffffffffffffffffffff166318160ddd6040518163ffffffff1660e01b8152600401602060405180830381865afa15801562000cf3573d6000803e3d6000fd5b505050506040513d601f19601f8201168201806040525081019062000d199190620028bd565b60648373ffffffffffffffffffffffffffffffffffffffff166370a08231600460009054906101000a900473ffffffffffffffffffffffffffffffffffffffff166040518263ffffffff1660e01b815260040162000d78919062001f6d565b602060405180830381865afa15801562000d96573d6000803e3d6000fd5b505050506040513d601f19601f8201168201806040525081019062000dbc9190620028bd565b62000dc89190620024f8565b62000dd4919062002572565b101562000e18576040517f08c379a000000000000000000000000000000000000000000000000000000000815260040162000e0f9062002965565b60405180910390fd5b8073ffffffffffffffffffffffffffffffffffffffff16639dc29fac600460009054906101000a900473ffffffffffffffffffffffffffffffffffffffff168373ffffffffffffffffffffffffffffffffffffffff166370a08231600460009054906101000a900473ffffffffffffffffffffffffffffffffffffffff166040518263ffffffff1660e01b815260040162000eb4919062001f6d565b602060405180830381865afa15801562000ed2573d6000803e3d6000fd5b505050506040513d601f19601f8201168201806040525081019062000ef89190620028bd565b6040518363ffffffff1660e01b815260040162000f1792919062002798565b6020604051808303816000875af115801562000f37573d6000803e3d6000fd5b505050506040513d601f19601f8201168201806040525081019062000f5d919062002802565b5050565b6060600180548060200260200160405190810160405280929190818152602001828054801562000fe757602002820191906000526020600020905b8160009054906101000a900473ffffffffffffffffffffffffffffffffffffffff1673ffffffffffffffffffffffffffffffffffffffff168152602001906001019080831162000f9c575b5050505050905090565b600460009054906101000a900473ffffffffffffffffffffffffffffffffffffffff1681565b6000808373ffffffffffffffffffffffffffffffffffffffff166318160ddd6040518163ffffffff1660e01b8152600401602060405180830381865afa15801562001066573d6000803e3d6000fd5b505050506040513d601f19601f820116820180604052508101906200108c9190620028bd565b8473ffffffffffffffffffffffffffffffffffffffff166370a08231856040518263ffffffff1660e01b8152600401620010c7919062001f6d565b602060405180830381865afa158015620010e5573d6000803e3d6000fd5b505050506040513d601f19601f820116820180604052508101906200110b9190620028bd565b915091509250929050565b60008073ffffffffffffffffffffffffffffffffffffffff168273ffffffffffffffffffffffffffffffffffffffff160362001189576040517f08c379a0000000000000000000000000000000000000000000000000000000008152600401620011809062002884565b60405180910390fd5b600260008373ffffffffffffffffffffffffffffffffffffffff1673ffffffffffffffffffffffffffffffffffffffff168152602001908152602001600020546103e88373ffffffffffffffffffffffffffffffffffffffff166370a08231600460009054906101000a900473ffffffffffffffffffffffffffffffffffffffff166040518263ffffffff1660e01b815260040162001229919062001f6d565b602060405180830381865afa15801562001247573d6000803e3d6000fd5b505050506040513d601f19601f820116820180604052508101906200126d9190620028bd565b8473ffffffffffffffffffffffffffffffffffffffff166318160ddd6040518163ffffffff1660e01b8152600401602060405180830381865afa158015620012b9573d6000803e3d6000fd5b505050506040513d601f19601f82011682018060405250810190620012df9190620028bd565b620012eb919062002987565b620012f79190620024f8565b62001303919062002572565b9050919050565b600080600073ffffffffffffffffffffffffffffffffffffffff168473ffffffffffffffffffffffffffffffffffffffff16036200137f576040517f08c379a0000000000000000000000000000000000000000000000000000000008152600401620013769062002884565b60405180910390fd5b60008311620013c5576040517f08c379a0000000000000000000000000000000000000000000000000000000008152600401620013bc90620021df565b60405180910390fd5b6000600260008673ffffffffffffffffffffffffffffffffffffffff1673ffffffffffffffffffffffffffffffffffffffff1681526020019081526020016000205490508473ffffffffffffffffffffffffffffffffffffffff166370a08231600460009054906101000a900473ffffffffffffffffffffffffffffffffffffffff166040518263ffffffff1660e01b815260040162001466919062001f6d565b602060405180830381865afa15801562001484573d6000803e3d6000fd5b505050506040513d601f19601f82011682018060405250810190620014aa9190620028bd565b8573ffffffffffffffffffffffffffffffffffffffff166318160ddd6040518163ffffffff1660e01b8152600401602060405180830381865afa158015620014f6573d6000803e3d6000fd5b505050506040513d601f19601f820116820180604052508101906200151c9190620028bd565b62001528919062002987565b91506103e881856200153b9190620024f8565b62001547919062002572565b9250509250929050565b6200155b62001869565b600073ffffffffffffffffffffffffffffffffffffffff168173ffffffffffffffffffffffffffffffffffffffff1603620015d05760006040517f1e4fbdf7000000000000000000000000000000000000000000000000000000008152600401620015c7919062001f6d565b60405180910390fd5b620015db81620018f9565b50565b600073ffffffffffffffffffffffffffffffffffffffff16600660009054906101000a900473ffffffffffffffffffffffffffffffffffffffff1673ffffffffffffffffffffffffffffffffffffffff160362001672576040517f08c379a0000000000000000000000000000000000000000000000000000000008152600401620016699062002251565b60405180910390fd5b6000806200168183856200130a565b9150915080821115620016cb576040517f08c379a0000000000000000000000000000000000000000000000000000000008152600401620016c29062002a12565b60405180910390fd5b600660009054906101000a900473ffffffffffffffffffffffffffffffffffffffff1673ffffffffffffffffffffffffffffffffffffffff16639dc29fac33866040518363ffffffff1660e01b81526004016200172a92919062002798565b6020604051808303816000875af11580156200174a573d6000803e3d6000fd5b505050506040513d601f19601f8201168201806040525081019062001770919062002802565b506200177d8383620019bd565b50505050565b600660009054906101000a900473ffffffffffffffffffffffffffffffffffffffff1681565b620017b362001869565b600073ffffffffffffffffffffffffffffffffffffffff168173ffffffffffffffffffffffffffffffffffffffff160362001825576040517f08c379a00000000000000000000000000000000000000000000000000000000081526004016200181c9062002884565b60405180910390fd5b80600360006101000a81548173ffffffffffffffffffffffffffffffffffffffff021916908373ffffffffffffffffffffffffffffffffffffffff16021790555050565b6200187362001b30565b73ffffffffffffffffffffffffffffffffffffffff166200189362000bfa565b73ffffffffffffffffffffffffffffffffffffffff1614620018f757620018b962001b30565b6040517f118cdaa7000000000000000000000000000000000000000000000000000000008152600401620018ee919062001f6d565b60405180910390fd5b565b60008060009054906101000a900473ffffffffffffffffffffffffffffffffffffffff169050816000806101000a81548173ffffffffffffffffffffffffffffffffffffffff021916908373ffffffffffffffffffffffffffffffffffffffff1602179055508173ffffffffffffffffffffffffffffffffffffffff168173ffffffffffffffffffffffffffffffffffffffff167f8be0079c531659141344cd1fd0a4f28419497f9722a3daafe3b4186f6b6457e060405160405180910390a35050565b600073ffffffffffffffffffffffffffffffffffffffff168273ffffffffffffffffffffffffffffffffffffffff160362001a2f576040517f08c379a000000000000000000000000000000000000000000000000000000000815260040162001a269062002884565b60405180910390fd5b6000811162001a75576040517f08c379a000000000000000000000000000000000000000000000000000000000815260040162001a6c90620021df565b60405180910390fd5b600660009054906101000a900473ffffffffffffffffffffffffffffffffffffffff1673ffffffffffffffffffffffffffffffffffffffff1663b6a1170b83600460009054906101000a900473ffffffffffffffffffffffffffffffffffffffff16846040518463ffffffff1660e01b815260040162001af89392919062002a34565b600060405180830381600087803b15801562001b1357600080fd5b505af115801562001b28573d6000803e3d6000fd5b505050505050565b600033905090565b6124878062002a7283390190565b6000604051905090565b600080fd5b600080fd5b600080fd5b600080fd5b6000601f19601f8301169050919050565b7f4e487b7100000000000000000000000000000000000000000000000000000000600052604160045260246000fd5b62001baf8262001b64565b810181811067ffffffffffffffff8211171562001bd15762001bd062001b75565b5b80604052505050565b600062001be662001b46565b905062001bf4828262001ba4565b919050565b600067ffffffffffffffff82111562001c175762001c1662001b75565b5b62001c228262001b64565b9050602081019050919050565b82818337600083830152505050565b600062001c5562001c4f8462001bf9565b62001bda565b90508281526020810184848401111562001c745762001c7362001b5f565b5b62001c8184828562001c2f565b509392505050565b600082601f83011262001ca15762001ca062001b5a565b5b813562001cb384826020860162001c3e565b91505092915050565b6000819050919050565b62001cd18162001cbc565b811462001cdd57600080fd5b50565b60008135905062001cf18162001cc6565b92915050565b600060ff82169050919050565b62001d0f8162001cf7565b811462001d1b57600080fd5b50565b60008135905062001d2f8162001d04565b92915050565b60008060008060008060c0878903121562001d555762001d5462001b50565b5b600087013567ffffffffffffffff81111562001d765762001d7562001b55565b5b62001d8489828a0162001c89565b965050602087013567ffffffffffffffff81111562001da85762001da762001b55565b5b62001db689828a0162001c89565b955050604062001dc989828a0162001ce0565b945050606062001ddc89828a0162001ce0565b935050608062001def89828a0162001d1e565b92505060a062001e0289828a0162001d1e565b9150509295509295509295565b600073ffffffffffffffffffffffffffffffffffffffff82169050919050565b6000819050919050565b600062001e5a62001e5462001e4e8462001e0f565b62001e2f565b62001e0f565b9050919050565b600062001e6e8262001e39565b9050919050565b600062001e828262001e61565b9050919050565b62001e948162001e75565b82525050565b600060208201905062001eb1600083018462001e89565b92915050565b600062001ec48262001e0f565b9050919050565b62001ed68162001eb7565b811462001ee257600080fd5b50565b60008135905062001ef68162001ecb565b92915050565b60006020828403121562001f155762001f1462001b50565b5b600062001f258482850162001ee5565b91505092915050565b62001f398162001cbc565b82525050565b600060208201905062001f56600083018462001f2e565b92915050565b62001f678162001eb7565b82525050565b600060208201905062001f84600083018462001f5c565b92915050565b600081519050919050565b600082825260208201905092915050565b6000819050602082019050919050565b62001fc18162001eb7565b82525050565b600062001fd5838362001fb6565b60208301905092915050565b6000602082019050919050565b600062001ffb8262001f8a565b62002007818562001f95565b9350620020148362001fa6565b8060005b838110156200204b5781516200202f888262001fc7565b97506200203c8362001fe1565b92505060018101905062002018565b5085935050505092915050565b6000602082019050818103600083015262002074818462001fee565b905092915050565b6000806040838503121562002096576200209562001b50565b5b6000620020a68582860162001ee5565b9250506020620020b98582860162001ee5565b9150509250929050565b6000604082019050620020da600083018562001f2e565b620020e9602083018462001f2e565b9392505050565b600080604083850312156200210a576200210962001b50565b5b60006200211a8582860162001ee5565b92505060206200212d8582860162001ce0565b9150509250929050565b6000806040838503121562002151576200215062001b50565b5b6000620021618582860162001ce0565b9250506020620021748582860162001ee5565b9150509250929050565b600082825260208201905092915050565b7f496e76616c696420416d6f756e74000000000000000000000000000000000000600082015250565b6000620021c7600e836200217e565b9150620021d4826200218f565b602082019050919050565b60006020820190508181036000830152620021fa81620021b8565b9050919050565b7f41415420546f6b656e204e6f7420536574000000000000000000000000000000600082015250565b6000620022396011836200217e565b9150620022468262002201565b602082019050919050565b600060208201905081810360008301526200226c816200222a565b9050919050565b7f496e76616c696420506f6f6c2057616c6c657400000000000000000000000000600082015250565b6000620022ab6013836200217e565b9150620022b88262002273565b602082019050919050565b60006020820190508181036000830152620022de816200229c565b9050919050565b7f4173736574204c6f636b65642057616c6c6574204973204e6f74205365740000600082015250565b60006200231d601e836200217e565b91506200232a82620022e5565b602082019050919050565b6000602082019050818103600083015262002350816200230e565b9050919050565b600081519050919050565b60005b838110156200238257808201518184015260208101905062002365565b60008484015250505050565b60006200239b8262002357565b620023a781856200217e565b9350620023b981856020860162002362565b620023c48162001b64565b840191505092915050565b620023da8162001cf7565b82525050565b6000610100820190508181036000830152620023fd818b6200238e565b9050818103602083015262002413818a6200238e565b905062002424604083018962001f2e565b62002433606083018862001f5c565b62002442608083018762001f5c565b6200245160a083018662001f5c565b6200246060c0830185620023cf565b6200246f60e0830184620023cf565b9998505050505050505050565b7f4e487b7100000000000000000000000000000000000000000000000000000000600052601160045260246000fd5b6000620024b88262001cbc565b91507fffffffffffffffffffffffffffffffffffffffffffffffffffffffffffffffff8203620024ed57620024ec6200247c565b5b600182019050919050565b6000620025058262001cbc565b9150620025128362001cbc565b9250828202620025228162001cbc565b915082820484148315176200253c576200253b6200247c565b5b5092915050565b7f4e487b7100000000000000000000000000000000000000000000000000000000600052601260045260246000fd5b60006200257f8262001cbc565b91506200258c8362001cbc565b9250826200259f576200259e62002543565b5b828204905092915050565b600081519050620025bb8162001d04565b92915050565b600060208284031215620025da57620025d962001b50565b5b6000620025ea84828501620025aa565b91505092915050565b60008160011c9050919050565b6000808291508390505b600185111562002652578086048111156200262a57620026296200247c565b5b60018516156200263a5780820291505b80810290506200264a85620025f3565b94506200260a565b94509492505050565b6000826200266d576001905062002740565b816200267d576000905062002740565b8160018114620026965760028114620026a157620026d7565b600191505062002740565b60ff841115620026b657620026b56200247c565b5b8360020a915084821115620026d057620026cf6200247c565b5b5062002740565b5060208310610133831016604e8410600b8410161715620027115782820a9050838111156200270b576200270a6200247c565b5b62002740565b62002720848484600162002600565b925090508184048111156200273a57620027396200247c565b5b81810290505b9392505050565b6000620027548262001cbc565b9150620027618362001cf7565b9250620027907fffffffffffffffffffffffffffffffffffffffffffffffffffffffffffffffff84846200265b565b905092915050565b6000604082019050620027af600083018562001f5c565b620027be602083018462001f2e565b9392505050565b60008115159050919050565b620027dc81620027c5565b8114620027e857600080fd5b50565b600081519050620027fc81620027d1565b92915050565b6000602082840312156200281b576200281a62001b50565b5b60006200282b84828501620027eb565b91505092915050565b7f496e76616c696420416464726573730000000000000000000000000000000000600082015250565b60006200286c600f836200217e565b9150620028798262002834565b602082019050919050565b600060208201905081810360008301526200289f816200285d565b9050919050565b600081519050620028b78162001cc6565b92915050565b600060208284031215620028d657620028d562001b50565b5b6000620028e684828501620028a6565b91505092915050565b7f4275726e696e6720616d6f756e74206c657373207468616e20393925206f662060008201527f74686520737570706c7900000000000000000000000000000000000000000000602082015250565b60006200294d602a836200217e565b91506200295a82620028ef565b604082019050919050565b6000602082019050818103600083015262002980816200293e565b9050919050565b6000620029948262001cbc565b9150620029a18362001cbc565b9250828203905081811115620029bc57620029bb6200247c565b5b92915050565b7f457863656564696e67204c696d69747300000000000000000000000000000000600082015250565b6000620029fa6010836200217e565b915062002a0782620029c2565b602082019050919050565b6000602082019050818103600083015262002a2d81620029eb565b9050919050565b600060608201905062002a4b600083018662001f5c565b62002a5a602083018562001f5c565b62002a69604083018462001f2e565b94935050505056fe60806040523480156200001157600080fd5b506040516200248738038062002487833981810160405281019062000037919062000581565b878781600390816200004a9190620008c9565b5080600490816200005c9190620008c9565b5050506200006f6200019060201b60201c565b600a6200007d919062000b33565b866200008a919062000b84565b600681905550600060648360ff16600654620000a7919062000b84565b620000b3919062000bfe565b9050600060648360ff16600654620000cc919062000b84565b620000d8919062000bfe565b9050620000ec87836200019960201b60201c565b620000fe85826200019960201b60201c565b86600560006101000a81548173ffffffffffffffffffffffffffffffffffffffff021916908373ffffffffffffffffffffffffffffffffffffffff16021790555085600760006101000a81548173ffffffffffffffffffffffffffffffffffffffff021916908373ffffffffffffffffffffffffffffffffffffffff1602179055505050505050505050505062000d22565b60006012905090565b600073ffffffffffffffffffffffffffffffffffffffff168273ffffffffffffffffffffffffffffffffffffffff16036200020b576040517f08c379a0000000000000000000000000000000000000000000000000000000008152600401620002029062000c97565b60405180910390fd5b6200021f600083836200030660201b60201c565b806002600082825462000233919062000cb9565b92505081905550806000808473ffffffffffffffffffffffffffffffffffffffff1673ffffffffffffffffffffffffffffffffffffffff168152602001908152602001600020600082825401925050819055508173ffffffffffffffffffffffffffffffffffffffff16600073ffffffffffffffffffffffffffffffffffffffff167fddf252ad1be2c89b69c2b068fc378daa952ba7f163c4a11628f55a4df523b3ef83604051620002e6919062000d05565b60405180910390a362000302600083836200030b60201b60201c565b5050565b505050565b505050565b6000604051905090565b600080fd5b600080fd5b600080fd5b600080fd5b6000601f19601f8301169050919050565b7f4e487b7100000000000000000000000000000000000000000000000000000000600052604160045260246000fd5b62000379826200032e565b810181811067ffffffffffffffff821117156200039b576200039a6200033f565b5b80604052505050565b6000620003b062000310565b9050620003be82826200036e565b919050565b600067ffffffffffffffff821115620003e157620003e06200033f565b5b620003ec826200032e565b9050602081019050919050565b60005b8381101562000419578082015181840152602081019050620003fc565b60008484015250505050565b60006200043c6200043684620003c3565b620003a4565b9050828152602081018484840111156200045b576200045a62000329565b5b62000468848285620003f9565b509392505050565b600082601f83011262000488576200048762000324565b5b81516200049a84826020860162000425565b91505092915050565b6000819050919050565b620004b881620004a3565b8114620004c457600080fd5b50565b600081519050620004d881620004ad565b92915050565b600073ffffffffffffffffffffffffffffffffffffffff82169050919050565b60006200050b82620004de565b9050919050565b6200051d81620004fe565b81146200052957600080fd5b50565b6000815190506200053d8162000512565b92915050565b600060ff82169050919050565b6200055b8162000543565b81146200056757600080fd5b50565b6000815190506200057b8162000550565b92915050565b600080600080600080600080610100898b031215620005a557620005a46200031a565b5b600089015167ffffffffffffffff811115620005c657620005c56200031f565b5b620005d48b828c0162000470565b985050602089015167ffffffffffffffff811115620005f857620005f76200031f565b5b620006068b828c0162000470565b9750506040620006198b828c01620004c7565b96505060606200062c8b828c016200052c565b95505060806200063f8b828c016200052c565b94505060a0620006528b828c016200052c565b93505060c0620006658b828c016200056a565b92505060e0620006788b828c016200056a565b9150509295985092959890939650565b600081519050919050565b7f4e487b7100000000000000000000000000000000000000000000000000000000600052602260045260246000fd5b60006002820490506001821680620006db57607f821691505b602082108103620006f157620006f062000693565b5b50919050565b60008190508160005260206000209050919050565b60006020601f8301049050919050565b600082821b905092915050565b6000600883026200075b7fffffffffffffffffffffffffffffffffffffffffffffffffffffffffffffffff826200071c565b6200076786836200071c565b95508019841693508086168417925050509392505050565b6000819050919050565b6000620007aa620007a46200079e84620004a3565b6200077f565b620004a3565b9050919050565b6000819050919050565b620007c68362000789565b620007de620007d582620007b1565b84845462000729565b825550505050565b600090565b620007f5620007e6565b62000802818484620007bb565b505050565b5b818110156200082a576200081e600082620007eb565b60018101905062000808565b5050565b601f82111562000879576200084381620006f7565b6200084e846200070c565b810160208510156200085e578190505b620008766200086d856200070c565b83018262000807565b50505b505050565b600082821c905092915050565b60006200089e600019846008026200087e565b1980831691505092915050565b6000620008b983836200088b565b9150826002028217905092915050565b620008d48262000688565b67ffffffffffffffff811115620008f057620008ef6200033f565b5b620008fc8254620006c2565b620009098282856200082e565b600060209050601f8311600181146200094157600084156200092c578287015190505b620009388582620008ab565b865550620009a8565b601f1984166200095186620006f7565b60005b828110156200097b5784890151825560018201915060208501945060208101905062000954565b868310156200099b578489015162000997601f8916826200088b565b8355505b6001600288020188555050505b505050505050565b7f4e487b7100000000000000000000000000000000000000000000000000000000600052601160045260246000fd5b60008160011c9050919050565b6000808291508390505b600185111562000a3e5780860481111562000a165762000a15620009b0565b5b600185161562000a265780820291505b808102905062000a3685620009df565b9450620009f6565b94509492505050565b60008262000a59576001905062000b2c565b8162000a69576000905062000b2c565b816001811462000a82576002811462000a8d5762000ac3565b600191505062000b2c565b60ff84111562000aa25762000aa1620009b0565b5b8360020a91508482111562000abc5762000abb620009b0565b5b5062000b2c565b5060208310610133831016604e8410600b841016171562000afd5782820a90508381111562000af75762000af6620009b0565b5b62000b2c565b62000b0c8484846001620009ec565b9250905081840481111562000b265762000b25620009b0565b5b81810290505b9392505050565b600062000b4082620004a3565b915062000b4d8362000543565b925062000b7c7fffffffffffffffffffffffffffffffffffffffffffffffffffffffffffffffff848462000a47565b905092915050565b600062000b9182620004a3565b915062000b9e83620004a3565b925082820262000bae81620004a3565b9150828204841483151762000bc85762000bc7620009b0565b5b5092915050565b7f4e487b7100000000000000000000000000000000000000000000000000000000600052601260045260246000fd5b600062000c0b82620004a3565b915062000c1883620004a3565b92508262000c2b5762000c2a62000bcf565b5b828204905092915050565b600082825260208201905092915050565b7f45524332303a206d696e7420746f20746865207a65726f206164647265737300600082015250565b600062000c7f601f8362000c36565b915062000c8c8262000c47565b602082019050919050565b6000602082019050818103600083015262000cb28162000c70565b9050919050565b600062000cc682620004a3565b915062000cd383620004a3565b925082820190508082111562000cee5762000ced620009b0565b5b92915050565b62000cff81620004a3565b82525050565b600060208201905062000d1c600083018462000cf4565b92915050565b6117558062000d326000396000f3fe608060405234801561001057600080fd5b50600436106100ea5760003560e01c806370a082311161008c578063a457c2d711610066578063a457c2d714610275578063a9059cbb146102a5578063c45a0155146102d5578063dd62ed3e146102f3576100ea565b806370a08231146101f757806395d89b41146102275780639dc29fac14610245576100ea565b806323b872dd116100c857806323b872dd1461015b578063313ce5671461018b57806339509351146101a95780636b881724146101d9576100ea565b806306fdde03146100ef578063095ea7b31461010d57806318160ddd1461013d575b600080fd5b6100f7610323565b6040516101049190610e78565b60405180910390f35b61012760048036038101906101229190610f33565b6103b5565b6040516101349190610f8e565b60405180910390f35b6101456103d8565b6040516101529190610fb8565b60405180910390f35b61017560048036038101906101709190610fd3565b6103e2565b6040516101829190610f8e565b60405180910390f35b610193610411565b6040516101a09190611042565b60405180910390f35b6101c360048036038101906101be9190610f33565b61041a565b6040516101d09190610f8e565b60405180910390f35b6101e1610451565b6040516101ee919061106c565b60405180910390f35b610211600480360381019061020c9190611087565b610477565b60405161021e9190610fb8565b60405180910390f35b61022f6104bf565b60405161023c9190610e78565b60405180910390f35b61025f600480360381019061025a9190610f33565b610551565b60405161026c9190610f8e565b60405180910390f35b61028f600480360381019061028a9190610f33565b6105f7565b60405161029c9190610f8e565b60405180910390f35b6102bf60048036038101906102ba9190610f33565b61066e565b6040516102cc9190610f8e565b60405180910390f35b6102dd610691565b6040516102ea919061106c565b60405180910390f35b61030d600480360381019061030891906110b4565b6106b7565b60405161031a9190610fb8565b60405180910390f35b60606003805461033290611123565b80601f016020809104026020016040519081016040528092919081815260200182805461035e90611123565b80156103ab5780601f10610380576101008083540402835291602001916103ab565b820191906000526020600020905b81548152906001019060200180831161038e57829003601f168201915b5050505050905090565b6000806103c061073e565b90506103cd818585610746565b600191505092915050565b6000600254905090565b6000806103ed61073e565b90506103fa85828561090f565b61040585858561099b565b60019150509392505050565b60006012905090565b60008061042561073e565b905061044681858561043785896106b7565b6104419190611183565b610746565b600191505092915050565b600560009054906101000a900473ffffffffffffffffffffffffffffffffffffffff1681565b60008060008373ffffffffffffffffffffffffffffffffffffffff1673ffffffffffffffffffffffffffffffffffffffff168152602001908152602001600020549050919050565b6060600480546104ce90611123565b80601f01602080910402602001604051908101604052809291908181526020018280546104fa90611123565b80156105475780601f1061051c57610100808354040283529160200191610547565b820191906000526020600020905b81548152906001019060200180831161052a57829003601f168201915b5050505050905090565b60003373ffffffffffffffffffffffffffffffffffffffff16600760009054906101000a900473ffffffffffffffffffffffffffffffffffffffff1673ffffffffffffffffffffffffffffffffffffffff16146105e3576040517f08c379a00000000000000000000000000000000000000000000000000000000081526004016105da90611203565b60405180910390fd5b6105ed8383610c11565b6001905092915050565b60008061060261073e565b9050600061061082866106b7565b905083811015610655576040517f08c379a000000000000000000000000000000000000000000000000000000000815260040161064c90611295565b60405180910390fd5b6106628286868403610746565b60019250505092915050565b60008061067961073e565b905061068681858561099b565b600191505092915050565b600760009054906101000a900473ffffffffffffffffffffffffffffffffffffffff1681565b6000600160008473ffffffffffffffffffffffffffffffffffffffff1673ffffffffffffffffffffffffffffffffffffffff16815260200190815260200160002060008373ffffffffffffffffffffffffffffffffffffffff1673ffffffffffffffffffffffffffffffffffffffff16815260200190815260200160002054905092915050565b600033905090565b600073ffffffffffffffffffffffffffffffffffffffff168373ffffffffffffffffffffffffffffffffffffffff16036107b5576040517f08c379a00000000000000000000000000000000000000000000000000000000081526004016107ac90611327565b60405180910390fd5b600073ffffffffffffffffffffffffffffffffffffffff168273ffffffffffffffffffffffffffffffffffffffff1603610824576040517f08c379a000000000000000000000000000000000000000000000000000000000815260040161081b906113b9565b60405180910390fd5b80600160008573ffffffffffffffffffffffffffffffffffffffff1673ffffffffffffffffffffffffffffffffffffffff16815260200190815260200160002060008473ffffffffffffffffffffffffffffffffffffffff1673ffffffffffffffffffffffffffffffffffffffff168152602001908152602001600020819055508173ffffffffffffffffffffffffffffffffffffffff168373ffffffffffffffffffffffffffffffffffffffff167f8c5be1e5ebec7d5bd14f71427d1e84f3dd0314c0f7b2291e5b200ac8c7c3b925836040516109029190610fb8565b60405180910390a3505050565b600061091b84846106b7565b90507fffffffffffffffffffffffffffffffffffffffffffffffffffffffffffffffff81146109955781811015610987576040517f08c379a000000000000000000000000000000000000000000000000000000000815260040161097e90611425565b60405180910390fd5b6109948484848403610746565b5b50505050565b600073ffffffffffffffffffffffffffffffffffffffff168373ffffffffffffffffffffffffffffffffffffffff1603610a0a576040517f08c379a0000000000000000000000000000000000000000000000000000000008152600401610a01906114b7565b60405180910390fd5b600073ffffffffffffffffffffffffffffffffffffffff168273ffffffffffffffffffffffffffffffffffffffff1603610a79576040517f08c379a0000000000000000000000000000000000000000000000000000000008152600401610a7090611549565b60405180910390fd5b610a84838383610dde565b60008060008573ffffffffffffffffffffffffffffffffffffffff1673ffffffffffffffffffffffffffffffffffffffff16815260200190815260200160002054905081811015610b0a576040517f08c379a0000000000000000000000000000000000000000000000000000000008152600401610b01906115db565b60405180910390fd5b8181036000808673ffffffffffffffffffffffffffffffffffffffff1673ffffffffffffffffffffffffffffffffffffffff16815260200190815260200160002081905550816000808573ffffffffffffffffffffffffffffffffffffffff1673ffffffffffffffffffffffffffffffffffffffff168152602001908152602001600020600082825401925050819055508273ffffffffffffffffffffffffffffffffffffffff168473ffffffffffffffffffffffffffffffffffffffff167fddf252ad1be2c89b69c2b068fc378daa952ba7f163c4a11628f55a4df523b3ef84604051610bf89190610fb8565b60405180910390a3610c0b848484610de3565b50505050565b600073ffffffffffffffffffffffffffffffffffffffff168273ffffffffffffffffffffffffffffffffffffffff1603610c80576040517f08c379a0000000000000000000000000000000000000000000000000000000008152600401610c779061166d565b60405180910390fd5b610c8c82600083610dde565b60008060008473ffffffffffffffffffffffffffffffffffffffff1673ffffffffffffffffffffffffffffffffffffffff16815260200190815260200160002054905081811015610d12576040517f08c379a0000000000000000000000000000000000000000000000000000000008152600401610d09906116ff565b60405180910390fd5b8181036000808573ffffffffffffffffffffffffffffffffffffffff1673ffffffffffffffffffffffffffffffffffffffff1681526020019081526020016000208190555081600260008282540392505081905550600073ffffffffffffffffffffffffffffffffffffffff168373ffffffffffffffffffffffffffffffffffffffff167fddf252ad1be2c89b69c2b068fc378daa952ba7f163c4a11628f55a4df523b3ef84604051610dc59190610fb8565b60405180910390a3610dd983600084610de3565b505050565b505050565b505050565b600081519050919050565b600082825260208201905092915050565b60005b83811015610e22578082015181840152602081019050610e07565b60008484015250505050565b6000601f19601f8301169050919050565b6000610e4a82610de8565b610e548185610df3565b9350610e64818560208601610e04565b610e6d81610e2e565b840191505092915050565b60006020820190508181036000830152610e928184610e3f565b905092915050565b600080fd5b600073ffffffffffffffffffffffffffffffffffffffff82169050919050565b6000610eca82610e9f565b9050919050565b610eda81610ebf565b8114610ee557600080fd5b50565b600081359050610ef781610ed1565b92915050565b6000819050919050565b610f1081610efd565b8114610f1b57600080fd5b50565b600081359050610f2d81610f07565b92915050565b60008060408385031215610f4a57610f49610e9a565b5b6000610f5885828601610ee8565b9250506020610f6985828601610f1e565b9150509250929050565b60008115159050919050565b610f8881610f73565b82525050565b6000602082019050610fa36000830184610f7f565b92915050565b610fb281610efd565b82525050565b6000602082019050610fcd6000830184610fa9565b92915050565b600080600060608486031215610fec57610feb610e9a565b5b6000610ffa86828701610ee8565b935050602061100b86828701610ee8565b925050604061101c86828701610f1e565b9150509250925092565b600060ff82169050919050565b61103c81611026565b82525050565b60006020820190506110576000830184611033565b92915050565b61106681610ebf565b82525050565b6000602082019050611081600083018461105d565b92915050565b60006020828403121561109d5761109c610e9a565b5b60006110ab84828501610ee8565b91505092915050565b600080604083850312156110cb576110ca610e9a565b5b60006110d985828601610ee8565b92505060206110ea85828601610ee8565b9150509250929050565b7f4e487b7100000000000000000000000000000000000000000000000000000000600052602260045260246000fd5b6000600282049050600182168061113b57607f821691505b60208210810361114e5761114d6110f4565b5b50919050565b7f4e487b7100000000000000000000000000000000000000000000000000000000600052601160045260246000fd5b600061118e82610efd565b915061119983610efd565b92508282019050808211156111b1576111b0611154565b5b92915050565b7f596f752043616e6e6f74204275726e0000000000000000000000000000000000600082015250565b60006111ed600f83610df3565b91506111f8826111b7565b602082019050919050565b6000602082019050818103600083015261121c816111e0565b9050919050565b7f45524332303a2064656372656173656420616c6c6f77616e63652062656c6f7760008201527f207a65726f000000000000000000000000000000000000000000000000000000602082015250565b600061127f602583610df3565b915061128a82611223565b604082019050919050565b600060208201905081810360008301526112ae81611272565b9050919050565b7f45524332303a20617070726f76652066726f6d20746865207a65726f2061646460008201527f7265737300000000000000000000000000000000000000000000000000000000602082015250565b6000611311602483610df3565b915061131c826112b5565b604082019050919050565b6000602082019050818103600083015261134081611304565b9050919050565b7f45524332303a20617070726f766520746f20746865207a65726f20616464726560008201527f7373000000000000000000000000000000000000000000000000000000000000602082015250565b60006113a3602283610df3565b91506113ae82611347565b604082019050919050565b600060208201905081810360008301526113d281611396565b9050919050565b7f45524332303a20696e73756666696369656e7420616c6c6f77616e6365000000600082015250565b600061140f601d83610df3565b915061141a826113d9565b602082019050919050565b6000602082019050818103600083015261143e81611402565b9050919050565b7f45524332303a207472616e736665722066726f6d20746865207a65726f20616460008201527f6472657373000000000000000000000000000000000000000000000000000000602082015250565b60006114a1602583610df3565b91506114ac82611445565b604082019050919050565b600060208201905081810360008301526114d081611494565b9050919050565b7f45524332303a207472616e7366657220746f20746865207a65726f206164647260008201527f6573730000000000000000000000000000000000000000000000000000000000602082015250565b6000611533602383610df3565b915061153e826114d7565b604082019050919050565b6000602082019050818103600083015261156281611526565b9050919050565b7f45524332303a207472616e7366657220616d6f756e742065786365656473206260008201527f616c616e63650000000000000000000000000000000000000000000000000000602082015250565b60006115c5602683610df3565b91506115d082611569565b604082019050919050565b600060208201905081810360008301526115f4816115b8565b9050919050565b7f45524332303a206275726e2066726f6d20746865207a65726f2061646472657360008201527f7300000000000000000000000000000000000000000000000000000000000000602082015250565b6000611657602183610df3565b9150611662826115fb565b604082019050919050565b600060208201905081810360008301526116868161164a565b9050919050565b7f45524332303a206275726e20616d6f756e7420657863656564732062616c616e60008201527f6365000000000000000000000000000000000000000000000000000000000000602082015250565b60006116e9602283610df3565b91506116f48261168d565b604082019050919050565b60006020820190508181036000830152611718816116dc565b905091905056fea26469706673582212204f2c0fa4342ecb667138b76fffb4819bd03cbce1147a791d275081fcd7ade41b64736f6c63430008130033a264697066735822122029c633092fd55c404e43fb656795624f7aefb8d6a40002da5e62957a3026366c64736f6c63430008130033",
  "linkReferences": {},
  "deployedLinkReferences": {}
}